{
  "_format": "hh-sol-artifact-1",
  "contractName": "PollFactory",
  "sourceName": "contracts/Poll.sol",
  "abi": [
    {
      "inputs": [],
      "stateMutability": "nonpayable",
      "type": "constructor"
    },
    {
      "inputs": [],
      "name": "createPoll",
      "outputs": [],
      "stateMutability": "nonpayable",
      "type": "function"
    },
    {
      "inputs": [
        {
          "internalType": "uint256",
          "name": "pollDurationSeconds",
          "type": "uint256"
        }
      ],
      "name": "createPollWithCustomDuration",
      "outputs": [],
      "stateMutability": "nonpayable",
      "type": "function"
    },
    {
      "inputs": [],
      "name": "defaultPollDurationSeconds",
      "outputs": [
        {
          "internalType": "uint256",
          "name": "",
          "type": "uint256"
        }
      ],
      "stateMutability": "view",
      "type": "function"
    },
    {
      "inputs": [],
      "name": "getPolls",
      "outputs": [
        {
          "internalType": "address[]",
          "name": "",
          "type": "address[]"
        }
      ],
      "stateMutability": "view",
      "type": "function"
    },
    {
      "inputs": [],
      "name": "owner",
      "outputs": [
        {
          "internalType": "address",
          "name": "",
          "type": "address"
        }
      ],
      "stateMutability": "view",
      "type": "function"
    },
    {
      "inputs": [
        {
          "internalType": "uint256",
          "name": "",
          "type": "uint256"
        }
      ],
      "name": "polls",
      "outputs": [
        {
          "internalType": "address",
          "name": "",
          "type": "address"
        }
      ],
      "stateMutability": "view",
      "type": "function"
    }
  ],
  "bytecode": "0x608060405234801561001057600080fd5b506100437f8cb20c41c16cdb14d0e2c7cce4d4249daf5b0a5f84052514182630898efe2cf960001b6100ed60201b60201c565b6100757f624b32de1ee24ff2caf78cae040853e61f7a9ff86f3a0130a6cdcc16f17d899d60001b6100ed60201b60201c565b6100a77ff27c415851d92a2b27ce10bf153db4eafafaa8627a5547fcc512c9f0fb66439c60001b6100ed60201b60201c565b33600160006101000a81548173ffffffffffffffffffffffffffffffffffffffff021916908373ffffffffffffffffffffffffffffffffffffffff1602179055506100f0565b50565b61290b806100ff6000396000f3fe608060405234801561001057600080fd5b50600436106100625760003560e01c8063120fe89b1461006757806339f14d17146100c6578063400e0ec3146100d05780637046f167146100fe5780638da5cb5b1461011c578063ac2f007414610150575b600080fd5b61006f6101a8565b6040518080602001828103825283818151815260200191508051906020019060200280838360005b838110156100b2578082015181840152602081019050610097565b505050509050019250505060405180910390f35b6100ce6102ba565b005b6100fc600480360360208110156100e657600080fd5b8101908080359060200190929190505050610603565b005b61010661094a565b6040518082815260200191505060405180910390f35b610124610951565b604051808273ffffffffffffffffffffffffffffffffffffffff16815260200191505060405180910390f35b61017c6004803603602081101561016657600080fd5b8101908080359060200190929190505050610977565b604051808273ffffffffffffffffffffffffffffffffffffffff16815260200191505060405180910390f35b60606101d67f47c03ca31f091d9147a695e6f2b85ae4d879c025d0709f00ab477f78d1fb70dd60001b6109b3565b6102027f56f573e6471c8dd3c9cc2c502df1599dfa744fdf7da391e167dfbcf9a414d2c060001b6109b3565b61022e7f4995c1c070e3d92613da559314f65f2cf894642b68f5bdd301e6e988f5f43f1d60001b6109b3565b60008054806020026020016040519081016040528092919081815260200182805480156102b057602002820191906000526020600020905b8160009054906101000a900473ffffffffffffffffffffffffffffffffffffffff1673ffffffffffffffffffffffffffffffffffffffff1681526020019060010190808311610266575b5050505050905090565b6102e67f301fbbd2ab91c1d96b8f9f3a290ee0325a5ec21250bcfabec7e87050706bf48560001b6109b3565b6103127fcc0963c5cd578035155f18e07356a996ad9688414a5712a489a79789bd093c4b60001b6109b3565b61033e7f2a6acdcc4aa05fe6241fb512677f795fb62fb496cf1902fb930b584c76587c7f60001b6109b3565b61036a7f4fdf56d90913b336580787d422c06d2695ebadbaa58717061865309700399c0260001b6109b3565b600160009054906101000a900473ffffffffffffffffffffffffffffffffffffffff1673ffffffffffffffffffffffffffffffffffffffff163373ffffffffffffffffffffffffffffffffffffffff1614610410576040517f08c379a000000000000000000000000000000000000000000000000000000000815260040180806020018281038252603981526020018061289d6039913960400191505060405180910390fd5b61043c7fc263c51fb11643807a601dafbfaa9f7f18a40070a378094fffc4920bef025fc660001b6109b3565b6104687f47a9048faafa6599f245f3f5d9655ba4d6246d55e4a980b5052c0d9c5daa028c60001b6109b3565b6104947fd8752fb0a2afa54a85d24ee45dc03d0b4c8e2dc19bde2c8a57410ffe8f1a6d8760001b6109b3565b6104c07fcc46610faa692ef5147e5713e7afaf9d73ec1f95e10ff80cf1bcc6f4a8d5c33a60001b6109b3565b6104ec7f02f66a971bf49a2fa4fd56716d31cf8daeecebd13a7a12f585baea5fdaa9e62d60001b6109b3565b6000336203f4806040516104ff906109b6565b808373ffffffffffffffffffffffffffffffffffffffff16815260200182815260200192505050604051809103906000f080158015610542573d6000803e3d6000fd5b5090506105717fee55226603205251f318deddd44210e0ac12c68b5c7110bec564d00a6811314260001b6109b3565b61059d7f0c0970f53244fd6a55b51081927fed1d0c0c254c91c16a8514aa7c5cc35bcb3560001b6109b3565b6000819080600181540180825580915050600190039060005260206000200160009091909190916101000a81548173ffffffffffffffffffffffffffffffffffffffff021916908373ffffffffffffffffffffffffffffffffffffffff16021790555050565b61062f7f301fbbd2ab91c1d96b8f9f3a290ee0325a5ec21250bcfabec7e87050706bf48560001b6109b3565b61065b7fcc0963c5cd578035155f18e07356a996ad9688414a5712a489a79789bd093c4b60001b6109b3565b6106877f2a6acdcc4aa05fe6241fb512677f795fb62fb496cf1902fb930b584c76587c7f60001b6109b3565b6106b37f4fdf56d90913b336580787d422c06d2695ebadbaa58717061865309700399c0260001b6109b3565b600160009054906101000a900473ffffffffffffffffffffffffffffffffffffffff1673ffffffffffffffffffffffffffffffffffffffff163373ffffffffffffffffffffffffffffffffffffffff1614610759576040517f08c379a000000000000000000000000000000000000000000000000000000000815260040180806020018281038252603981526020018061289d6039913960400191505060405180910390fd5b6107857fc263c51fb11643807a601dafbfaa9f7f18a40070a378094fffc4920bef025fc660001b6109b3565b6107b17f47a9048faafa6599f245f3f5d9655ba4d6246d55e4a980b5052c0d9c5daa028c60001b6109b3565b6107dd7f80f217f4c4288f631c0d4fa3060e3b1ee3f82b795752db5b9e7366073ff421c960001b6109b3565b6108097fd72a26dd2b37ff95448d18f30838d160339e3611577c26f2ee5fbe89b88c57c860001b6109b3565b6108357f02d49b15068901489476065064ec0bc6aa3a3d19c74cdf5f90e9eca7ea6d611760001b6109b3565b60003382604051610845906109b6565b808373ffffffffffffffffffffffffffffffffffffffff16815260200182815260200192505050604051809103906000f080158015610888573d6000803e3d6000fd5b5090506108b77f91e92a778956970f4c601c301c8528dcdae6cc8e07238ac71b3efb94cb1a225660001b6109b3565b6108e37f7e3d13d2a62e475fd8703848a510e707b2d4fadfc992ef89395531cb855410f760001b6109b3565b6000819080600181540180825580915050600190039060005260206000200160009091909190916101000a81548173ffffffffffffffffffffffffffffffffffffffff021916908373ffffffffffffffffffffffffffffffffffffffff1602179055505050565b6203f48081565b600160009054906101000a900473ffffffffffffffffffffffffffffffffffffffff1681565b6000818154811061098457fe5b906000526020600020016000915054906101000a900473ffffffffffffffffffffffffffffffffffffffff1681565b50565b611ed9806109c48339019056fe60806040523480156200001157600080fd5b5060405162001ed938038062001ed9833981810160405260408110156200003757600080fd5b810190808051906020019092919080519060200190929190505050620000867f3dc6b1fb093033dd93370ea3ec9071768250baecf5d3ab03898dc75538a3e3db60001b6200021460201b60201c565b620000ba7f8bf05176f655524deeb1f61b29f30447144ee2b368aa6fe7a5a5c1b9a0d6116760001b6200021460201b60201c565b620000ee7f8e7895adacb5451bdb87ad51f0b0936df335474fa10ca21f8fdc883b8010112160001b6200021460201b60201c565b816000806101000a81548173ffffffffffffffffffffffffffffffffffffffff021916908373ffffffffffffffffffffffffffffffffffffffff160217905550620001627f0f0bd80f381e7fa01e385a97355f05caaa2b06c99a154ca92d77a5054ad4f19460001b6200021460201b60201c565b620001967f41c00a9bbb640ca2117ffb1bc53bde85f1482b287becea251d6428e6c8b2a31160001b6200021460201b60201c565b42600581905550620001d17f64c3cfbf5aaaf826629d9515a66c4a19ff8d54b25eb4981362c7fbebd976fa0a60001b6200021460201b60201c565b620002057f39ea4f35dac921d54db23984c4beb5ba1c10f9dcd8780271b0f87b992ec23d5460001b6200021460201b60201c565b80600681905550505062000217565b50565b611cb280620002276000396000f3fe6080604052600436106100e85760003560e01c80635a9b0b891161008a578063cabfaa1811610059578063cabfaa181461043b578063f6d7f35514610466578063f7bb7a3214610493578063fa391c64146104aa576100e8565b80635a9b0b89146102cc5780636dd7d8ea1461034f578063a3ec138d14610393578063aabe2fe3146103fa576100e8565b80632820aece116100c65780632820aece146101e4578063357e85dd146102495780633e25e83714610274578063481c6a751461028b576100e8565b806309e69ede146100ed57806309eef43e146101525780630b97bc86146101b9575b600080fd5b3480156100f957600080fd5b5061013c6004803603602081101561011057600080fd5b81019080803573ffffffffffffffffffffffffffffffffffffffff1690602001909291905050506104d7565b6040518082815260200191505060405180910390f35b34801561015e57600080fd5b506101a16004803603602081101561017557600080fd5b81019080803573ffffffffffffffffffffffffffffffffffffffff1690602001909291905050506104ef565b60405180821515815260200191505060405180910390f35b3480156101c557600080fd5b506101ce6105c9565b6040518082815260200191505060405180910390f35b3480156101f057600080fd5b5061021d6004803603602081101561020757600080fd5b81019080803590602001909291905050506105cf565b604051808273ffffffffffffffffffffffffffffffffffffffff16815260200191505060405180910390f35b34801561025557600080fd5b5061025e61060b565b6040518082815260200191505060405180910390f35b34801561028057600080fd5b50610289610611565b005b34801561029757600080fd5b506102a0610b02565b604051808273ffffffffffffffffffffffffffffffffffffffff16815260200191505060405180910390f35b3480156102d857600080fd5b506102e1610b26565b604051808873ffffffffffffffffffffffffffffffffffffffff16815260200187815260200186151581526020018581526020018481526020018381526020018273ffffffffffffffffffffffffffffffffffffffff16815260200197505050505050505060405180910390f35b6103916004803603602081101561036557600080fd5b81019080803573ffffffffffffffffffffffffffffffffffffffff169060200190929190505050610c2d565b005b34801561039f57600080fd5b506103e2600480360360208110156103b657600080fd5b81019080803573ffffffffffffffffffffffffffffffffffffffff16906020019092919050505061152f565b60405180821515815260200191505060405180910390f35b34801561040657600080fd5b5061040f61154f565b604051808273ffffffffffffffffffffffffffffffffffffffff16815260200191505060405180910390f35b34801561044757600080fd5b50610450611575565b6040518082815260200191505060405180910390f35b34801561047257600080fd5b5061047b611606565b60405180821515815260200191505060405180910390f35b34801561049f57600080fd5b506104a86116b3565b005b3480156104b657600080fd5b506104bf611c0b565b60405180821515815260200191505060405180910390f35b60026020528060005260406000206000915090505481565b600061051d7fcec1516d69c53cd47eba4ed0c8b07ef17558c7b2fb42b518dc2a963378b2fc6f60001b611c1e565b6105497f6121982d6205058766e6023bac437c31765e6fbed4694e381bb5da4f9f9a467360001b611c1e565b6105757fe97380a77b6f56176f33b5ef7bb5432d92622f2c4e43b1474a5763d091be887160001b611c1e565b600460008373ffffffffffffffffffffffffffffffffffffffff1673ffffffffffffffffffffffffffffffffffffffff16815260200190815260200160002060009054906101000a900460ff169050919050565b60055481565b600381815481106105dc57fe5b906000526020600020016000915054906101000a900473ffffffffffffffffffffffffffffffffffffffff1681565b60065481565b61063d7fd9a5387cde60046aa378ee49a187720f2057e0cfaafe7e084f3ce1e36f4a53df60001b611c1e565b6106697f5e424403b3cf256fad1db5a34d2832f6366b02726b38790c98e37b038c38d41c60001b611c1e565b6106957fffde4ed3d49dfc671b72b0ac37abbf8511c647c8558361fba19a20999f7eb31160001b611c1e565b6106c17f47b97258d0d33b7a9d78f865e52f64fb85303e09e08c5eb8a869f4da7859dbea60001b611c1e565b60008054906101000a900473ffffffffffffffffffffffffffffffffffffffff1673ffffffffffffffffffffffffffffffffffffffff163373ffffffffffffffffffffffffffffffffffffffff1614610765576040517f08c379a0000000000000000000000000000000000000000000000000000000008152600401808060200182810382526039815260200180611c446039913960400191505060405180910390fd5b6107917f75a2575c28def4b7633c5beff39d1021ac1e82cd40a7b3aa199973d8332844b060001b611c1e565b6107bd7f3ab119a02b0b004c844747758e77f45e463e96330ba8489c852c0685787f133b60001b611c1e565b6107e97f4d3af36e7aca482bd93074f560b4b9a321048c8f66e5161d5dd04747015ae9cb60001b611c1e565b6108157ff1339a9aab5ed8687937e693060a1810e72835ecf4ac383d01761d022ac708f860001b611c1e565b6108417fbe21688d30d0641094279ee6e3d26b203993d01054e69c9fb8a630110b62227260001b611c1e565b61086d7f26b9dcd5ffb6fb6faa1477b9bd958676d90505131e6e88de407d0db196bdd58a60001b611c1e565b600760009054906101000a900460ff166108ef576040517f08c379a000000000000000000000000000000000000000000000000000000000815260040180806020018281038252601c8152602001807f54686520706f6c6c206861736e27742066696e6973686564207965740000000081525060200191505060405180910390fd5b61091b7f3da8a428e5749bd4336108fb3c9e591c658a91110f624d99751663d3f16239e160001b611c1e565b6109477f2b169a2ee5976e3eeb972d5d12fd6db8d1f1501632358502bf8f453b5695ffaa60001b611c1e565b6109737f42eddd2ced8f1ef38ddd44cedbe8daf7daeaa115fca57364875151da09a02c0060001b611c1e565b61099f7f4884ccc8f9ca06bba6b6ea06f3e59ff38a49bafcde24e79b6de3bbbc75a8228b60001b611c1e565b60004711610a15576040517f08c379a00000000000000000000000000000000000000000000000000000000081526004018080602001828103825260188152602001807f54686520706f6c6c2062616c616e6365206973207a65726f000000000000000081525060200191505060405180910390fd5b610a417fb254b2371889b9c5a8fa3a4e9f49520e0f56905fd6c10eab0e96bbcf6af1b49760001b611c1e565b610a6d7f84c43f4880b32a59952643891ee8f61037a0f1822926105b85eb74ccf8b6e53660001b611c1e565b610a997f55260a7b34624c26f5b6a32594688140645f6d8cbd58658568489895e0ed267460001b611c1e565b60008054906101000a900473ffffffffffffffffffffffffffffffffffffffff1673ffffffffffffffffffffffffffffffffffffffff166108fc479081150290604051600060405180830381858888f19350505050158015610aff573d6000803e3d6000fd5b50565b60008054906101000a900473ffffffffffffffffffffffffffffffffffffffff1681565b6000806000806000806000610b5d7f81089a6e391ad9915876426189e394fe15f2e9e8de267f47fd43cbd9a4af6b4760001b611c1e565b610b897f2e0999805cf6c120deb970b1a781f2f1638cbbb6198fa21e5ed3c2f78756a0b360001b611c1e565b610bb57f0f93bf3fb95c569906bb3b81908e612bbe21dc10ca070ec8238daf1bfff9b85560001b611c1e565b600160009054906101000a900473ffffffffffffffffffffffffffffffffffffffff1647600760009054906101000a900460ff1660055460065460038054905060008054906101000a900473ffffffffffffffffffffffffffffffffffffffff16965096509650965096509650965090919293949596565b610c597fa2ad6d500dcbe7b5e5f3f957e3602963d97b297f64ce9d7b0cc1abd1edb339cd60001b611c1e565b610c857fbe3421eb4b81d295248aed44f1e0b3ba7b459bb1f397dbd7344e61529840f4e660001b611c1e565b610cb17f044004f33b9133104f2423d9b66dd5b29ae8f569fea2f2b8826e55ef742cf7b660001b611c1e565b610cdd7fc9726f1e6a16e7098153a8d23d9b02e38f05e273a5d6c1e55d935f187c73ab2c60001b611c1e565b60065460055401421115610d59576040517f08c379a000000000000000000000000000000000000000000000000000000000815260040180806020018281038252601c8152602001807f54686520706f6c6c2068617320616c726561647920657870697265640000000081525060200191505060405180910390fd5b610d857fc119f1e0f755b9b10f697389cb9dc7eced3f6eb2c5ea0e0c421420b5ba292df760001b611c1e565b610db17f7bbc2e7c39ad854271d241b60dfd293dc53b9d73e7bf4067005246802e212eb860001b611c1e565b610ddd7fdeb8abc5c34ec3ff5dca94d12a9285956458434249fe4658710acde8e2ae0a3460001b611c1e565b610e097f0aec57f3a218ee8bd5bb47ba9495d7b3af1a9de7fad002b9f4b66ee7687c2d6460001b611c1e565b662386f26fc100003414610e68576040517f08c379a0000000000000000000000000000000000000000000000000000000008152600401808060200182810382526022815260200180611c226022913960400191505060405180910390fd5b610e947f0bf42dac3df0adc64c42f167543bb46713e5fe784edf167cb97f72e68aadc41b60001b611c1e565b610ec07f39b22edec8eb2373327b969c54cc8c2d865ccc894575a9e687a45797ffecb4ea60001b611c1e565b610eec7f0d048b6ace26c8f33a78daa01abc00bd3970d4d4e1c6863e31b8cf938bdc86ba60001b611c1e565b610f187f4b24dc8421d190688770de11467842cdf467e42ccb5c8547c4c2e6f11191abc160001b611c1e565b60011515600460003373ffffffffffffffffffffffffffffffffffffffff1673ffffffffffffffffffffffffffffffffffffffff16815260200190815260200160002060009054906101000a900460ff1615151415610fdf576040517f08c379a000000000000000000000000000000000000000000000000000000000815260040180806020018281038252601e8152602001807f5468697320616464726573732068617320616c726561647920766f746564000081525060200191505060405180910390fd5b61100b7f6bac0821b939d40927a089dd62ad572513b02304accbb955c96d66d2d271f38360001b611c1e565b6110377fe188ca1120d4037d68e19c4a5b3edd45511fb953d294072cc223e5f6ca68a14460001b611c1e565b6110637f22205b576b81474f83dba77cc6e677caa22e11f1f14e371db1ecd638340eab3e60001b611c1e565b6001600460003373ffffffffffffffffffffffffffffffffffffffff1673ffffffffffffffffffffffffffffffffffffffff16815260200190815260200160002060006101000a81548160ff0219169083151502179055506110e77fb1910d840947581402c3bddc5b44b67c05ad840ddc9a242b74c78d176279276060001b611c1e565b6111137ff6289fb39f8577cb6359cb5a76c8d6e5b41dc803dc2f10fed5c308467e10234060001b611c1e565b6000600260008373ffffffffffffffffffffffffffffffffffffffff1673ffffffffffffffffffffffffffffffffffffffff1681526020019081526020016000205490506111837fdccba878ca41addc380c1d693d754f6a30cdd657243954d31061775bf75ebe6860001b611c1e565b6111af7fd829c38d87e51f5901c4d33d4c6e69c57c298e9f58bb21d99aa2eab3c1831a1c60001b611c1e565b60008114156112a4576111e47fa304df5cdc5ffc14e3ef5ba070ea6f5a26ab9167d0f4863315c9f0de3c28326760001b611c1e565b6112107f343ede963dec9035cbf2f1840ad6e1359778146be6989566c2ff0050d955adc760001b611c1e565b61123c7f0ef90d09233d4c3ab2c4e2dc842036daba7afb59c334625cabd56f52a7bc546e60001b611c1e565b6003829080600181540180825580915050600190039060005260206000200160009091909190916101000a81548173ffffffffffffffffffffffffffffffffffffffff021916908373ffffffffffffffffffffffffffffffffffffffff1602179055506112d1565b6112d07f54455a663d58c7f8fc54fda605efc4d6262c890be44f75dfa08a950d4fd2951460001b611c1e565b5b6112fd7f6f365ac8b5daaf395e043df58aa01c0a54c0f6332f3785953993b057288b747060001b611c1e565b6113297f77a29a91a3441440b1fe56685d50b41490927521b8dd0065704902e8e0e27ab860001b611c1e565b80600101905080600260008473ffffffffffffffffffffffffffffffffffffffff1673ffffffffffffffffffffffffffffffffffffffff1681526020019081526020016000208190555061139f7f4cde6892ea033ded88e741013de3ccca93ff734053bff828be6164ebdefebfed60001b611c1e565b6113cb7f7369ca705d25800c24b94135b857d2e70da2b4994acd16a4e557624ae445bd9360001b611c1e565b8060026000600160009054906101000a900473ffffffffffffffffffffffffffffffffffffffff1673ffffffffffffffffffffffffffffffffffffffff1673ffffffffffffffffffffffffffffffffffffffff1681526020019081526020016000205410156114fe576114607f6055c0927b6a185e75b2177a7e5926ca9ab226deaae094e0776b25cdf1fea62d60001b611c1e565b61148c7f8ee87e1dfafc22c992f40f78cfe6145a71632ffc966a88b976ef16b6d2e4aa6860001b611c1e565b6114b87fca8595f70979ccef25f7a19dbaa2f3f70eb3947e15935d9522d0f861d569223f60001b611c1e565b81600160006101000a81548173ffffffffffffffffffffffffffffffffffffffff021916908373ffffffffffffffffffffffffffffffffffffffff16021790555061152b565b61152a7f3972cae40d0b19aa7ad68ebd6f7a8decd68768e1ea2f6cf50a2c541efa3829e660001b611c1e565b5b5050565b60046020528060005260406000206000915054906101000a900460ff1681565b600160009054906101000a900473ffffffffffffffffffffffffffffffffffffffff1681565b60006115a37f7da93cbeacf720128f728ca020e046a6abcd06aad86cae390488da2a41c28d3c60001b611c1e565b6115cf7f591c4536fe68717746ee55b0bc7dd69b0d6d891287aa2721241425b9cb32f56b60001b611c1e565b6115fb7f1762ec7dc342ba669ca3c048b93c5e608d8e415ae20f86d6e5b85f1e140e16fe60001b611c1e565b600380549050905090565b60006116347fac84e287de75c0d5c092413cd84fe22ba4444f02b7b4c6aa8dba795e8eaa2aa260001b611c1e565b6116607f22d849005d9af4c3345d616d1def79531d550e1e6c52586e00dd75b04cf5b26e60001b611c1e565b61168c7fae419543e90b318f9386ded6bc8d8e39ab839968e794ff28de27bf9917d931c260001b611c1e565b600760009054906101000a900460ff161580156116ae57506006546005540142115b905090565b6116df7fb902af5b34bb68de36d2ecdf55521ebf3e8ca18c9001e2ca26956e43a6d7541260001b611c1e565b61170b7fb1d72fd923539132aaba2f3fb8280e325e899c195bff36828f33513f7805e48a60001b611c1e565b6117377fa84d56153dfbbd6693ececd371aaf85960ae449667ad36c9b11b9fef5f26ba2b60001b611c1e565b6117637fa20e57147bb919c3af614948718473000f877d1d52d0482bd2f9025f392bebe860001b611c1e565b6006546005540142116117de576040517f08c379a00000000000000000000000000000000000000000000000000000000081526004018080602001828103825260198152602001807f506f6c6c2074696d65206973206e6f74206f766572207965740000000000000081525060200191505060405180910390fd5b61180a7f20f4e27d3b330d63721ba081e73cff17f971ef6c88ea7ead409e84620505a5da60001b611c1e565b6118367fb63710d892c0bcbf7566afecfc31a95fe3bbc7840a2487535d32ebf2262bfd2360001b611c1e565b6118627f3eb7f80835d9da49d68e45fc183c205af7dfe3270592152b8f392b4b61af32ef60001b611c1e565b61188e7f39b8ed3116140723cda2ec84f4350be1ec84d39954edcaef6b3865620459d8be60001b611c1e565b600760009054906101000a900460ff1615611911576040517f08c379a000000000000000000000000000000000000000000000000000000000815260040180806020018281038252601d8152602001807f54686520706f6c6c2068617320616c72656164792066696e697368656400000081525060200191505060405180910390fd5b61193d7fac5baf20dc3f5295abcaa31b734e83acdf7914acc2c09918b3d380ae0301cd3560001b611c1e565b6119697ff6e0d98957f96a702ab023fa320374aa95e6f4be5e6fede6cd42ee98e74bade060001b611c1e565b6119957f16586eda4c1db3605d61c5a56035b4b21f892a13607b02e8c77823dba8d8b35260001b611c1e565b60004790506119c67f5c4adff98cf70bdfecbddc50326e6066fa0eaf2c43b4b20927e58387b6a1111960001b611c1e565b6119f27f3256d8fc285aaa7db0d5ee8e65ccebe84273552b03ba9027b1b456a63af5478a60001b611c1e565b600081118015611a0757506000600380549050115b15611b6857611a387f7db7713b44fd5f2d36c68a5fb7a2f3cf3207c3808968114005a1b98f8901c77f60001b611c1e565b611a647f9b7372c58f85abceafe6912f5d8f865d4f877b04a5c79cd3103ad563c0d3508660001b611c1e565b611a907f8b65e0e1c67e3f2a5bea18a2519b51c52f2c7d57465ff7d5267ce1b79dd225c260001b611c1e565b6000600a8281611a9c57fe5b0482039050611acd7f6a4ca9780004f6a4c32684eab3a9f5483ec9304db1fc3802eccc53219e6bf66e60001b611c1e565b611af97fdcca19195473d0dfd58a5f237c38aa2fb6c5d49abe0aff6d9a68684d8e7439c460001b611c1e565b600160009054906101000a900473ffffffffffffffffffffffffffffffffffffffff1673ffffffffffffffffffffffffffffffffffffffff166108fc829081150290604051600060405180830381858888f19350505050158015611b61573d6000803e3d6000fd5b5050611b95565b611b947fc2ffaa94f1d6ee86a6ea641f0eeb4c761e70ff3dc28080aa177add913c55e9a760001b611c1e565b5b611bc17fb28aa41d4135369a4c74a46978f642ce6ba20edde0226941520a9b840e4bf34360001b611c1e565b611bed7f77886b3f2b63e5e6548dc86d87060bdd7ec6efbf36a969d401ff54411c463c4160001b611c1e565b6001600760006101000a81548160ff02191690831515021790555050565b600760009054906101000a900460ff1681565b5056fe446f6e6174696f6e206d75737420626520657175616c20746f20302e3031206574684f6e6c7920746865206f776e6572206f662074686520636f6e74726163742063616e20706572666f726d2074686973206f7065726174696f6ea26469706673582212204682782aeb7ccb6595f47c5d886db51443912f51132c86db84173610a72c9fd964736f6c634300070300334f6e6c7920746865206f776e6572206f662074686520636f6e74726163742063616e20706572666f726d2074686973206f7065726174696f6ea264697066735822122000827d042c0223825ee0011d7e9b82bd5eef600ad580b5156809320e7f62f42864736f6c63430007030033",
  "linkReferences": {},
  "deployedLinkReferences": {}
}